:10000000004000026F010000390100003B010000C8
:100010003D0100003F010000410100000000000020
:10002000000000000000000000000000430100008C
:10003000450100000000000059030000F501000028
:100040004B0100004B0100004B0100004B01000080
:100050004B0100004B0100004B0100004B01000070
:100060004B0100004B0100004B0100004B01000060
:100070004B0100004B0100004B0100004B01000050
:100080004B0100004B0100004B0100004B01000040
:100090004B0100004B0100004B0100004B01000030
:1000A0004B0100004B0100004B0100004B01000020
:1000B0004B0100004B0100004B0100004B01000010
:1000C0004B0100004B0100004B0100004B01000000
:1000D0004B0100004B0100004B0100004B010000F0
:1000E0004B0100004B0100004B0100004B010000E0
:1000F0004B0100004B0100004B010000AC0400006C
:100100000000000200000000AC04000000400002FB
:1001100000000000AC0400000080000200000000AD
:100120000000000218010000004000020000000072
:100130000080000200000000FEE7FEE7FEE7FEE7A9
:10014000FEE7FEE7FEE7FEE7FEE7FEE7002310B569
:10015000934200D310BD1C585C500433F8E70023D1
:100160001A468B4200D370471A500433F9E738B56A
:100170000C4C0D4DAC4205D30C4DAC420AD300F0F3
:1001800093F9FEE7D4E900010C3454F8042CFFF78E
:10019000DDFFEFE754F8080B54F8041CFFF7DFFF0E
:1001A000EBE700BFFC000000200100003801000068
:1001B0000B4B1A681F2A08D8012219688A4009497E
:1001C0000A601A6801321A6070471A68632AF8D107
:1001D0004FF0FF326FF4C0111A60034A1160F0E76C
:1001E000040000028022001C0021001C70477047A0
:1001F0007047FFFF10B50021134800F07BF80A2379
:10020000124C2268B2FBF3F103FB112111B9104823
:1002100000F070F864232268B2FBF3F103FB1121B4
:1002200011B90C4800F066F84FF47A732268B2FBFB
:10023000F3F103FB112111B9074800F05BF82368C3
:100240000133236010BD00BFB101000000000002B7
:10025000ED010000F1010000EF01000008B500F021
:100260009DF84FF0FF32194B1949C3F8C021C3F86C
:10027000C4111A605A609A60DA601A615A619A6110
:10028000DA611A625A629A62DA621A635A639A638C
:100290004FF6FF72DA636FF4C0130E4A1360C2F8B0
:1002A00000310C220C4B9A6000F01CF800220B4B22
:1002B00083F8232000F0ECF8094B1A6842F00102A1
:1002C0001A601A6842F002021A60FEE700800340DA
:1002D000FFFF3F000020001C00400B4000ED00E04D
:1002E00010E000E0C022024B83F82220704700BFDC
:1002F00000ED00E0F0B5144B144E1B783468DAB210
:10030000651C356004B972B684235343104CE7185A
:1003100097F88020D2B20F2A14DC551C03EBC203DD
:10032000EDB287F88050E0500120E2185160094A90
:10033000536843F0805353603368013B336003B923
:1003400062B6F0BD0020F7E70C00000208000002D2
:100350001000000200ED00E0F8B584230D490024F0
:1003600008780A784343B2FA82F21D460A4E5209CF
:100370000A70F21892F8807082F88040FFB2BC4296
:1003800000DBF8BD05EBC403F218F358506898473A
:100390000134F4E70C000002100000020121394B87
:1003A000D3F8082222F40012C3F80822C3F8C010C0
:1003B000D3F8242142F40052C3F82421C3F8A0103A
:1003C000D3F8082242F48002C3F808224522C3F879
:1003D0009821D3F8082222F48002C3F808224FF4AF
:1003E000807200BF013AFCD1D3F89C21D007FBD525
:1003F0000222C3F884200122C3F8A4204322C3F8B8
:10040000A021D3F8082222F40002C3F808221D4AD2
:100410001346D2F8A411C907FBD50121C2F8A810D0
:100420004521C2F8A811D2F8081221F08071C2F853
:100430000812D3F8AC21D207FBD502220321C3F85E
:100440008820C3F88C10C3F898200122C3F8CC2070
:10045000C3F8D020C3F8D820C3F8D420C3F8EC20C8
:10046000C3F8F020C3F8F820D3F8C410064A0A43B2
:10047000C3F8C420D3F8C810044A0A43C3F8C820FC
:10048000704700BF004007401BFA11780206A20027
:10049000034B1A6842F004021A60024A5A6070471D
:0C04A00010E000E03F190100FFF7D8BE9B
:040000030000016F89
:00000001FF
